:400000000080002011000000550500005505000008B5044B1A6803F53F5302331A6000F0B9FA00BFFA46004010B5054C237833B9044B13B10448AFF300800123237010BD10
:400040006889FF1F00000000B4350000084B10B51BB108480849AFF300800848036803B910BD074B002BFBD0BDE81040184700BF00000000B43500006C89FF1F0881FF1F9F
:4000800000000000000000002DE9F04786B062B600F090FD00F010FA00F072FE00F074F9012000F023FD984800F046FD974801F08FFE002000F074FE4FF0010A04A800F068
:4000C0000BFA02A800F010FA052000F0C3FCBDF8142002F5FA79BDF8123003F5FA7842F6F821894501DC4FEA520942F6F822904501DC4FEA5308484601F028FA04460D4669
:4001000077A3D3E9002301F087FA02460B462046294601F081FA06460F462046294672A3D3E9002301F078FA02460B463046394601F0BEF86EA3D3E9002301F0B9F86EA3D5
:40014000D3E9002301F092FB06460F46404601F0FDF904460D4662A3D3E9002301F05CFA02460B462046294601F056FACDE90001204629465CA3D3E9002301F04DFA0246B3
:400180000B46DDE9000101F093F859A3D3E9002301F08EF858A3D3E9002301F067FB04460D46304639460022594B01F0BBFC10B153A7D7E90067204629460022544B01F0C3
:4001C000B1FC10B14EA5D5E90045B9F13B0F09DC3046394600224F4B01F06CF804460D4600260027B8F13B0F09DC204629460022484B01F05FF806460F4600240025B9F194
:40020000480F02DC3EA5D5E90045B8F1480F02DC3BA7D7E90067BDF8162041F270739A420CD9BDF80A30012B08D1BDF80830012B04D10024002532A7D7E90067BDF80E30DC
:40024000012B0ED1BDF80C30012B0AD1BDF8102041F270739A4204D929A5D5E90045002600273046394601F071FCC6B22046294601F06CFCC4B230462146002200F08CF8C7
:40028000BDF80830002B7FF419AFBDF80A30002B7FF414AFBDF80C30002B7FF40FAFBDF80E30002B7FF40AAFBAF1010F0BD100F06FF800F063F800F067F83046214600227D
:4002C00000F06AF804E0BAF1030F01D100F060F80AF1010A5C2000F0BDFBEFE6AFF3008012F8C3CF7F0FD93FF5F3A62215C60E40AE47E17A14666C400000000080842E41CC
:400300000000000000C06F40B1030000B83500000000694000806B40F8B50C46174600250BE023780A2B02D10D2000F067FC661C207800F063FC01353446BD42F1DB3846E8
:40034000F8BD00BFF8B50F461446002612E000F03FFC054670B100F051FC01360D2D03D10A2000F04BFC0A257B1C3D70013C0A2D02D01F46002CEADC3046F8BD08B500F033
:400380001BFD0128FBD008BD08B500F053FB08BD08B500F0E7FA08BD38B50D46144600F0F5FA284600F0F8FA204600F053FB38BDF8B500F045FE044600F0C8FD074600F0DB
:4003C0004BFD064600F0E6FE054614F0400F09D000F03CFE044600F045FE201A80B2354B988003E000F032FE324B988017F0400F09D000F0B1FD044600F0BAFD201A80B2B1
:400400002C4BD88003E000F0A7FD2A4BD88016F0400F09D000F026FD044600F02FFD201A80B2244B188003E000F01CFD214B188015F0400F09D000F0B3FE044600F0BCFEDD
:40044000201A80B21B4B588003E000F0A9FE194B58800C2000F060FE012000F051FE0C2000F072FE012000F063FE0C2000F0CEFC012000F0BFFC0C2000F0F8FE012000F06F
:40048000E9FE0A2000F0FCFA022000F045FE022000F05AFE022000F0B9FC022000F0E6FE00F0CEFD00F052FD00F0D6FC00F072FEF8BD00BF8489FF1F08B5064800F03CFBDC
:4004C00000F010FE00F094FD00F018FD00F0B4FE08BD00BFB10300000246024B03CB1060516070478489FF1F184B1B889BB2184A1288934202D90023038001E0012303800B
:40050000124B5B889BB2124A5288934202D90023438001E0012343800C4B9B889BB20C4A9288934202D90023838001E001238380064BDB889BB2064AD288934202D9002307
:40054000C38070470123C380704700BF8489FF1F0C81FF1F08B501F019FB03680C2B00D1FEE7FEE708B5094B1A681044084BC31AB3F5006F02DC054B186005E001F006FB24
:400580000C2303604FF0FF32104608BD1481FF1FE089FF1F08B5104E104D16E029686B68AC68002204E051F8040B43F8040B0432A242F8D1E868002203E0002143F8041BA3
:4005C00004328242F9D11035013E002EE6D101F0E3FAFFF759FDFEE7010000003036000008B5124A124B1A60124A136843F40073136000230AE0032B03D80F4A52F8231098
:4006000000E00E490E4A42F8231001332F2BF2D90C4B1A780C4B1A70094A0C4B1A6000F0F7F800220A4B1A6008BD00BF0004FA050CED00E014ED00E000000000550500000C
:400640000080FF1FBC7600400481FF1F08ED00E00081FF1FFEE700BFF0B40022174611E050F82760F3B226F0FF0608E001EB420511F812406D78A5550132013BDBB2002B90
:40068000F4D10137242FEBD9F0BC704708B50A46002101F01FFB08BD38B50122304B1A801823304A1370192502321580023213701D21023211800232137077210232118093
:4006C00002321370EF21023211800232137040F2AF4102321180023213700222224B1A7008224FF040231A70032103F5007319701E4B1B78DBB21E490B701E4B1A8041F2EF
:400700005122023B1A8000240CE01B4B1B7803F0010343EA440404F003044FF4F07000F0B3FD013D0DB1032CEFD115B90320FFF791FF124B4FF480721A8007221A70002259
:400740000F490A704820023108701A700222033B1A700C4A137843F03F03137038BD00BF80400040824000400043004008010049A1460040224200402542004004400040C4
:4007800006400040A2430040F8B5184B1B78DBB2174E3478E4B2174F3D78EDB203F00701154A11701B090132137044F00303337045F003033B708022104B1A704023104A41
:4007C000137002321370082302F21D2213702021033211702D3213700A2000F051F93D7034704422074B1A70F8BD00BFCF010049F8460040F94600406E5800402D510040C0
:40080000095900407658004008B501F0EDF908BD38B572B63A4A137843F00403137000240CE0384963001A1952000A4423445B00C8589188FFF72AFF0134E4B2072CF0D926
:4008400000240BE02F49A3001A1952000A44106B516B0622FFF7D8FF0134E4B2002CF1D04FF090402849FFF7F7FE284A137843F0020313701032137843F002031370244C7C
:40088000237843F040032370A2F58632513A137843F0100313701F481F490822FFF7B4FF1E481F490A22FFF7AFFF1E481E490822FFF7AAFF1D481E490822FFF7A5FF1D489B
:4008C0001D490A22FFF7A0FF1C481D490822FFF79BFF1C4A137843F0080313701A4D61232B70FFF7D9FE81232B700122174B1A70FFF74AFF164821460E22FFF785FF38BD57
:40090000E8460040C03500009400004803500140A0430040025100407C080048C051004084080048F251004090080048125100409808004820510040A008004832510040EB
:40094000AC080048224300400048004004000840B0430040024A137843F080031370704777650040024A137803F07F031370704777650040014B1870704700BF0765004054
:40098000014B1870704700BF47650040014B1870704700BF27650040014B1870704700BF37650040014B1870704700BF87650040014B1878704700BF67650040014B187815
:4009C000704700BF5765004008B501E0FFF7F6FFFFF7EEFF10F0100FF8D108BD10B5134A137803F0C00343F009031370104C237843F001032370FF20FFF7BCFFFF20FFF7A1
:400A0000BFFF2820FFF7C2FF2820FFF7C5FF0020FFF7C8FF00F040FC237843F01003237000F03EFCFFF7D0FF10BD00BF776500409765004008B5054B1B7823B9FFF7CEFF68
:400A40000122024B1A70FFF785FF08BD9489FF1F01BE704710B5044605E0084B186800F013FCA4F50044B4F5004FF6D8034B586800FB04F000F008FC10BD00BF1881FF1FEF
:400A800008B5034B1B7A03FB00F000F0FDFB08BD1881FF1F70B504460E46074B1D681F2802D90020FFF7D4FF04F01F04103455F8240045F8246070BD08ED00E038B50446D9
:400AC0000D46072902D90020FFF7C2FF1F2C02D90020FFF7BDFF04F01F0000F1604000F564406D01EDB2057038BD00BF044A137803F0DF03400100F02000184310707047C5
:400B000020510040014B1B685864704708ED00E04001C0B2014B1870704700BF01E400E00222014B1A60704700E100E00222014B1A60704780E100E010B50446FFF7F6FFED
:400B40002046FFF7DFFF0720FFF7E2FFFFF7E8FF10BD00BF7222084B1A702022A3F580731A700622A1331A70472210331A700022B03B1A70704700BF8865004010B500F061
:400B80008BFB04460A4A137843F020031370A2F58072137843F0100313700132137843F01003137000F00EF9204600F079FB10BD9865004008B5054B1B7823B9FFF7CAFF43
:400BC0000122024B1A70FFF7D9FF08BD9589FF1F084B1B78DBB213F0200F06D0064A1078C0B213F01E0F02D17047002070470020704700BF686400404B650040034B1B7863
:400C000013F0040FFAD1024B18707047696400404964004008B50A280FD00C2802D0082806D102E04FF4805209E04FF4807206E00020FFF70DFF002201E04FF4806200210C
:400C4000094B198042F2107303FB02F303F6C413064A82FB0302DB17C3EBE223044A1360044B198008BD00BFD289FF1FAD8BDB68D889FF1FD489FF1F10B500F00DFB044674
:400C80001E4A137843F0020313701032137843F002031370193A137843F0010313701032137843F00103137002F5AA521932137843F0030313700422114B1A70013B1A7880
:400CC00002F0BF021A701A7842F003021A700822053B1A700222A3F59753123B1A70094A137843F0080313700A20FFF7C9FE0122054B1A60204600F0D3FA10BDAB43004062
:400D00000E5900402F5B004080E200E010B504460A280DD00C2802D0082804D101E0C42207E0442205E00020FFF792FEC42200E08422034B1A702046FFF76CFF10BD00BFA1
:400D40000A59004008B5102000F04AF800200721FFF7B4FE00200749FFF79CFE064A137843F0060313700C20FFF7D0FF0022034B1A8008BD9D0D000009590040D089FF1FA4
:400D800008B5054B1B7823B9FFF7DCFF0122024B1A70FFF771FF08BD9789FF1F704700BF044A137803F0FD03400000F0020018431070704720510040014B1878C009704770
:400DC00011510040054A137843F0020313701032137843F002031370704700BFA2430040034B1A7800F0F80010431870704700BF82400040044A137803F0DF03400100F09F
:400E00002000184310707047F0510040044A137803F0F10300F00E0018431070704700BF7D500040084A137843F0020313701032137843F00203137002F65932137843F002
:400E400001031370704700BFA3430040014B1870704700BF0F4F0040014B1878704700BF0F4F0040014B188880B27047104F0040014B1880704700BF104F0040014B18881E
:400E800080B27047144F0040014B1880704700BF124F004008B5164A137803F0010313700232137803F0FC031370124B1A7802F0CF021A701A7842F030021A701A7802F015
:400EC000F0021A701A7842F00F021A700A4A137843F00103137045F6BF50FFF7C9FF45F6BF50FFF7D1FF0820FFF7B0FF08BD00BF0C4F0040174F00400D4F004008B5054B2B
:400F00001B7823B9FFF7C6FF0122024B1A70FFF789FF08BD9889FF1F084A137843F0080313701032137843F00803137002F67132137843F001031370704700BFA343004063
:400F4000014B1870704700BF274F0040014B1878704700BF274F0040014B188880B27047284F0040014B1880704700BF284F0040014B188880B270472C4F0040014B188058
:400F8000704700BF2A4F004008B5164A137803F0010313700232137803F0FC031370124B1A7802F0CF021A701A7842F030021A701A7802F0F0021A701A7842F00F021A7091
:400FC0000A4A137843F00103137045F6BF50FFF7C9FF45F6BF50FFF7D1FF0820FFF7B0FF08BD00BF244F00402F4F0040254F004008B5054B1B7823B9FFF7C6FF0122024B23
:401000001A70FFF789FF08BD9989FF1F084A137843F0040313701032137843F00403137002F66532137843F001031370704700BFA3430040014B1870704700BF1B4F00401B
:40104000014B1878704700BF1B4F0040014B188880B270471C4F0040014B1880704700BF1C4F0040014B188880B27047204F0040014B1880704700BF1E4F004008B5164A47
:40108000137803F0010313700232137803F0FC031370124B1A7802F0CF021A701A7842F030021A701A7802F0F0021A701A7842F00F021A700A4A137843F00103137045F608
:4010C000BF50FFF7C9FF45F6BF50FFF7D1FF0820FFF7B0FF08BD00BF184F0040234F0040194F004008B5054B1B7823B9FFF7C6FF0122024B1A70FFF789FF08BD9A89FF1F0C
:40110000044A137803F0EF03000100F01000184310707047C0510040044A137803F0F10300F00E0018431070704700BF64500040044A137803F0EF03000100F010001843F0
:4011400010707047F0510040044A137803F0F10300F00E0018431070704700BF7C500040084A137843F0010313701032137843F00103137002F64D32137843F001031370C2
:40118000704700BFA3430040014B1870704700BF034F0040014B1878704700BF034F0040014B188880B27047044F0040014B1880704700BF044F0040014B188880B27047A9
:4011C000084F0040014B1880704700BF064F004008B5164A137803F0010313700232137803F0FC031370124B1A7802F0CF021A701A7842F030021A701A7802F0F0021A7057
:401200001A7842F00F021A700A4A137843F00103137045F6BF50FFF7C9FF45F6BF50FFF7D1FF0820FFF7B0FF08BD00BF004F00400B4F0040014F004008B5054B1B7823B918
:40124000FFF7C6FF0122024B1A70FFF789FF08BD9B89FF1F044A137803F0EF03000100F0100018431070704730510040044A137803F0F10300F00E0018431070704700BF13
:401280001C500040000000000230800803D000BF01380046FCD17047EFF3108072B6704780F31088704700BF81F0004102E000BF83F0004330B54FEA41044FEA430594EAF6
:4012C000050F08BF90EA020F1FBF54EA000C55EA020C7FEA645C7FEA655C00F0E2804FEA5454D4EB5555B8BF6D420CDD2C4480EA020281EA030382EA000083EA010180EA81
:40130000020281EA0303362D88BF30BD11F0004F4FEA01314FF4801C4CEA113102D0404261EB410113F0004F4FEA03334CEA133302D0524263EB430394EA050F00F0A780CD
:40134000A4F10104D5F1200E0DDB02FA0EFC22FA05F2801841F1000103FA0EF2801843FA05F359410EE0A5F120050EF1200E012A03FA0EFC28BF4CF0020C43FA05F3C01869
:4013800051EBE37101F0004507D54FF0000EDCF1000C7EEB00006EEB0101B1F5801F1BD3B1F5001F0CD349085FEA30004FEA3C0C04F101044FEA445212F5800F80F09A8096
:4013C000BCF1004F08BF5FEA500C50F1000041EB045141EA050130BD5FEA4C0C404141EB010111F4801FA4F10104E9D191F0000F04BF01460020B1FA81F308BF2033A3F1D6
:401400000B03B3F120020CDA0C3208DD02F1140CC2F10C0201FA0CF021FA02F10CE002F11402D8BFC2F1200C01FA02F120FA0CFCDCBF41EA0C019040E41AA2BF01EB045138
:40144000294330BD6FEA04041F3C1CDA0C340EDC04F11404C4F1200220FA04F001FA02F340EA030021FA04F345EA030130BDC4F10C04C4F1200220FA02F001FA04F340EA32
:401480000300294630BD21FA04F0294630BD94F0000F83F4801306BF81F480110134013D4EE77FEA645C18BF7FEA655C29D094EA050F08BF90EA020F05D054EA000C04BF69
:4014C0001946104630BD91EA030F1EBF0021002030BD5FEA545C05D14000494128BF41F0004130BD14F580043CBF01F5801130BD01F0004545F0FE4141F470014FF0000048
:4015000030BD7FEA645C1ABF194610467FEA655C1CBF0B46024650EA013406BF52EA033591EA030F41F4002130BD00BF90F0000F04BF0021704730B54FF4806404F13204D1
:401540004FF000054FF0000150E700BF90F0000F04BF0021704730B54FF4806404F1320410F0004548BF40424FF000013EE700BF42004FEAE2014FEA31014FEA02701FBF4C
:4015800012F07F4393F07F4F81F06051704792F0000F14BF93F07F4F704730B54FF4607401F0004521F0004120E700BF50EA010208BF704730B54FF000050AE050EA01027C
:4015C00008BF704730B511F0004502D5404261EB41014FF4806404F132045FEA915C3FF4DCAE4FF003025FEADC0C18BF03325FEADC0C18BF033202EBDC02C2F1200300FABD
:4016000003FC20FA02F001FA03FE40EA0E0021FA02F11444C1E600BF70B54FF0FF0C4CF4E06C1CEA11541DBF1CEA135594EA0C0F95EA0C0F00F0DEF82C4481EA030621EA07
:401640004C5123EA4C5350EA013518BF52EA033541F4801143F4801338D0A0FB02CE4FF00005E1FB02E506F00042E0FB03E54FF00006E1FB03569CF0000F18BF4EF0010E28
:40168000A4F1FF04B6F5007F64F5407404D25FEA4E0E6D4146EB060642EAC62141EA55514FEAC52040EA5E504FEACE2EB4F1FD0C88BFBCF5E06F1ED8BEF1004F08BF5FEAED
:4016C000500E50F1000041EB045170BD06F0004646EA010140EA020081EA0301B4EB5C04C2BFD4EB0C0541EA045170BD41F480114FF0000E013C00F3AB8014F1360FDEBF42
:40170000002001F0004170BDC4F10004203C35DA0C341BDC04F11404C4F1200500FA05F320FA04F001FA05F240EA020001F0004221F0004110EBD37021FA04F642EB0601BE
:401740005EEA430E08BF20EAD37070BDC4F10C04C4F1200500FA04F320FA05F001FA04F240EA020001F0004110EBD37041F100015EEA430E08BF20EAD37070BDC4F120057C
:4017800000FA05F24EEA020E20FA04F301FA05F243EA020321FA04F001F0004121FA04F220EA020000EBD3705EEA430E08BF20EAD37070BD94F0000F0FD101F0004640006B
:4017C00041EB010111F4801F08BF013CF7D041EA060195F0000F18BF704703F00046520043EB030313F4801F08BF013DF7D043EA0603704794EA0C0F0CEA135518BF95EA8D
:401800000C0F0CD050EA410618BF52EA4306D1D181EA030101F000414FF0000070BD50EA410606BF1046194652EA430619D094EA0C0F02D150EA013613D195EA0C0F05D18B
:4018400052EA03361CBF104619460AD181EA030101F0004141F0FE4141F470014FF0000070BD41F0FE4141F4780170BD70B54FF0FF0C4CF4E06C1CEA11541DBF1CEA13556A
:4018800094EA0C0F95EA0C0F00F0A7F8A4EB050481EA030E52EA03354FEA013100F088804FEA03334FF0805545EA131343EA12634FEA022245EA111545EA10654FEA00264C
:4018C0000EF000419D4208BF964244F1FD0404F5407402D25B084FEA3202B61A65EB03055B084FEA32024FF480104FF4002CB6EB020E75EB030E22BFB61A754640EA0C00A6
:401900005B084FEA3202B6EB020E75EB030E22BFB61A754640EA5C005B084FEA3202B6EB020E75EB030E22BFB61A754640EA9C005B084FEA3202B6EB020E75EB030E22BFCC
:40194000B61A754640EADC0055EA060E18D04FEA051545EA16754FEA06164FEAC30343EA52734FEAC2025FEA1C1CC0D111F4801F0BD141EA00014FF000004FF0004CB6E726
:4019800011F4801F04BF01430020B4F1FD0C88BFBCF5E06F3FF6AFAEB5EB030C04BFB6EB020C5FEA500C50F1000041EB045170BD0EF0004E4EEA113114EB5C04C2BFD4EBBB
:4019C0000C0541EA045170BD41F480114FF0000E013C90E645EA060E8DE60CEA135594EA0C0F08BF95EA0C0F3FF43BAF94EA0C0F0AD150EA01347FF434AF95EA0C0F7FF4F2
:401A000025AF104619462CE795EA0C0F06D152EA03353FF4FDAE1046194622E750EA410618BF52EA43067FF4C5AE50EA41047FF40DAF52EA43057FF4EBAE12E74FF0FF3C15
:401A400006E000BF4FF0010C02E000BF4FF0010C4DF804CD4FEA410C7FEA6C5C4FEA430C18BF7FEA6C5C1BD001B050EA410C0CBF52EA430C91EA030F02BF90EA020F0020B9
:401A8000704710F1000F91EA030F58BF994208BF90422CBFD8176FEAE37040F0010070474FEA410C7FEA6C5C02D150EA013C07D14FEA430C7FEA6C5CD6D152EA033CD3D082
:401AC0005DF8040B704700BF8446104662468C461946634600E000BF01B5FFF7B7FF002848BF10F1000F01BD4DF808EDFFF7F4FF0CBF012000205DF808FB00BF4DF808EDEC
:401B0000FFF7EAFF34BF012000205DF808FB00BF4DF808EDFFF7E0FF94BF012000205DF808FB00BF4DF808EDFFF7CEFF94BF012000205DF808FB00BF4DF808EDFFF7C4FF26
:401B400034BF012000205DF808FB00BF4A0011D212F5001211D20DD56FF47873B3EB62520ED44FEAC12343F0004343EA505323FA02F070474FF00000704750EA013002D130
:401B80004FF0FF3070474FF000007047014B1868704700BF5085FF1F70B50F4E0F4D761BB61018BF002405D0013455F8043B9847A642F9D10A4E0B4D01F026FD761BB61063
:401BC00018BF002406D0013455F8043B9847A642F9D170BD70BD00BF14360000143600002036000014360000844641EA000313F0030349D1403A23D30B6803604B684360BE
:401C00008B688360CB68C3600B6903614B6943618B698361CB69C3610B6A03624B6A43628B6A8362CB6AC3620B6B03634B6B43638B6B8363CB6BC36340304031403ADBD238
:401C400030320BD30B6803604B6843608B688360CB68C36010301031103AF3D20C3205D351F8043B40F8043B043AF9D2043208D0D2071CBF11F8013B00F8013B01D30B887C
:401C800003806046704700BF082A13D38B07B1D010F00303AED0C3F10403D21ADB071CBF11F8013B00F8013BA4D331F8023B20F8023B9FE7043AD9D3013A11F8013B00F8DF
:401CC000013BF9D20B7803704B7843708B7883706046704770B4840746D0541E002A41D0CDB2034602E0621EE4B3144603F8015B9A07F8D1032C2ED9CDB245EA05250F2C87
:401D000045EA054519D9264603F11002103E0F2E42F8105C42F80C5C42F8085C42F8045C02F11002F2D8A4F1100222F00F0204F00F041032032C13440DD91E462246043A63
:401D4000032A46F8045BFAD8221F22F003020432134404F003042CB1C9B21C4403F8011BA342FBD170BC704714460346C2E700BFF0B5044689B008460D4600F031F8A3688C
:401D800002219A89DFF844E000F1010C012704AE0291910404950590CDF80CC0CDF818E00797019606D4596E42F4005221F400519A8159662046194601AA00F065F80028E3
:401DC00014BF4FF0FF300A2009B0F0BD04360000024B01461868FFF7CBBF00BF5085FF1F20F0030110F00300C0F1000051F8043B00F1040C4FEACC0C6FF000021CBF22FAD8
:401E00000CF213434FF0010C4CEA0C2C4CEA0C4CA3EB0C0222EA030212EACC1204BF51F8043B0430F4D0C2F1000102EA0102B2FA82F2C2F11F0200EBD2007047024B13B120
:401E4000024800F005B87047000000005D1E0000014600200246034600F042BF38B5084B084DED1AAC1018BFED1805D0013C55F8043D9847002CF9D1BDE8384001F0D0BB0E
:401E80002C360000303600009368002B00F0B1802DE9F04FB1F80CE083B01EF0080F0C468146164628D00B6933B30EF002081FFA88F0356880B34FF0000BD846DFF8E4A2DC
:401EC000B8F1000F00F08F80D0454346484628BF5346E1695A46676AB847002840F3A880B36883441B1AC0EB0808B360002BE7D1002003B0BDE8F08F4846214600F08EFE12
:401F0000002840F04681B4F80CE035680EF002081FFA88F00028CED11EF0010B40F09180D846B8F1000F58D01EF4007FA76862D0B845BA46C0F0C2801EF4906F00F0C08092
:401F400067692169236807EB47075B1A07EBD777581C7F10404487423A463CBF07463A461EF4806F009300F0FB801146484600F01BF9009B8246002800F00E811A46216913
:401F80000093FFF731FEA289009B22F4906242F08002A2810AEB0300C4F810A0FB1A6761C24647462060A3605246594600F0CCFBA0682268C01BA060404602EB0A0323600D
:401FC000B36883441B1AC0EB0808B360002B8FD0B4F80CE0B8F1000FA6D1D5F800B0D5F8048008359DE7D5F800B0D5F80480083566E70020704720682369984203D8626959
:40200000904580F08580474528BF474659463A4600F09AFBA3682268DB1B3A44A3602260002B49D14846214600F050FF002843D0A38943F040034FF0FF30A38103B0BDE8E4
:40204000F08F8046834682460090BAF1000F2BD0009B002B4FD0D045434628BF5346206821691F468842D4F808E0626903D90EEB020C63455EDC934224DB1346676A484631
:40208000E1695A46B847071ED2DDB8EB070829D0B368BB44DB1BC7EB0A0AB360002B3FF427AFBAF1000FD3D10023D5F800B0D5F804A000930835C8E7384681E74746C24632
:4020C000206871E71A465946019300F03DFBA2682168019BB8EB0708A2EB03020B44A2602360D5D14846214600F0F0FE00289FD1CDF80080CCE758460A21524600F0DAFAD0
:40210000002841D001300123CBEB00080093A2E76FF00043434528BF434693FBF2F3676A03FB02F34846E1695A46B84700283FF747AF7DE762465946CDF804C000F004FB78
:402140002368DDF804C0484663442360214600F0BDFEDDF804C000287FF46AAF674694E7484600F059FB009B824600287FF412AF4846216900F096FFA3890C2223F08003DE
:402180009BB2C9F8002054E701230AF10108009361E74FF0FF30ACE60C23C9F80030A38947E700BF00FCFF7F2DE9F04F01F10B05162D83B0064627D935F0070500F1B6808F
:4021C000A94200F2B38000F023FBB5F5FC7F22D2BC4FE80807EBC003DC689C4200F0BC816368E16823F0030323445A68A56842F00102E96030468D605A6000F00BFB083479
:40220000204603B0BDE8F08F102900F28F8000F0FFFA1025DCE7680A00F08F80042800F24781A80938304100A64F07EB8101CC68A14206D10CE0002A80F28280E468A14285
:4022400006D0636823F003035A1B0F2AF3DD013801309C493C6901F1080E744500F07181636823F003035A1B0F2A00F35781002AC1F814E0C1F810E066DAB3F5007F80F0DB
:402280002D81DB0801EBC3084FEAA30C4A68012303FA0CF3D8F808C01343C4F808C0C4F80C804B60C8F80840CCF80C408210012494409C4255D8234206D120F00300640056
:4022C000234200F10400FAD007EBC008C4468146DCF80C309C4507D135E1002980F24581DB689C4500F02F815A6822F00302511B0F29F2DD1C46DA6854F808CF45F00109D9
:4023000041F001081D44C3F804903046CCF80C20C2F808C07D613D61C5F80CE0C5F808E0C5F80480695000F075FA69E7002420460C23336003B0BDE8F08F7E213F2073E7DD
:4023400023445A68E16851E723445A68304642F001025A60083400F05DFA204603B0BDE8F08FBC68636823F00308454504D8C5EB08030F2B00F38C80534BDFF85CA11A680A
:40238000DAF800302A44013304EB080B00F0518102F580520F3222F47F6222F00F0211463046019200F028FCB0F1FF3F8146019A00F04881834500F2EF80444BCB451968DA
:4023C0001144196000F04381DAF80000DFF808E101301BBFCBEB090B5944CEF80090196019F0070100F00881C1F10800C1F58051814408314A44C2F30B02C2EB010A514620
:402400003046019300F0F8FB431C019B00F02D81C9EB0002524442F001021968BC425144C7F808901960C9F80420DFF8A0A016D0B8F10F0F40F2EF806268A8F10C0323F0E2
:40244000070302F00102E0184FF0050E1A430F2B6260C0F804E0C0F808E000F20A811C4BBC681A68914288BF19601A4B1A689142626888BF196022F003029542A2EB05039A
:4024800001D80F2B04DC304600F0C4F90024B7E645F0010243F00103254462603046BD6008346B6000F0B6F9204603B0BDE8F08F142869D9542800F29880280B6E3041001F
:4024C000B2E600BF5485FF1FA489FF1FA889FF1FA089FF1F9C89FF1F6089FF1F5A0A042A55D9142A00F2A7805B324FEA420C07EB8C0CDCF80810DFF8B88161457FD04A680B
:4025000022F00302934202D289688C45F7D1CA687B68E260A1609460CC60C7E645F0010742F001032544676030464D610D61C5F80CE0C5F808E06B60AA50083400F06AF955
:402540005EE64B68B2E609F1010919F0030F0CF1080C7FF4BDAE2CE004F108036469A34208BF02303FF475AE3AE61C461A445168DB6854F8085F41F0010151603046EB607D
:402580009D6000F047F93BE65B3041004CE69A0938324FEA420CAAE7BC42454B3FF40DAF9C68626822F0030267E7D8F8008098457CD110F0030FA8F1080300F1FF30F4D1E5
:4025C0007B6823EA04037B6064009C423FF6C9AE002C3FF4C6AE234248467FF475AE6400234200F10400FAD06EE6B0F5AA7F18D8E80B7730410017E64FF48051FAE6D8F889
:40260000043092104FF0010C0CFA02F21343C8F804300A467DE70123C9F804304C4600222BE740F2545398421CD8A80C7C304100FAE51032B3E6542A23D81A0B6E324FEA28
:40264000420C54E7BC68626822F0030215E7CBF30B0000287FF4B8AE4244BB6842F001025A60FCE6FC217E20DEE501224FF0000AD3E604F10801304600F014FDDAF8001092
:40268000EDE6B2F5AA7F04D8DA0B77324FEA420C2DE740F254518A4204D89A0C7C324FEA420C24E74FF0FC0C7E2220E77B688BE75485FF1F830770B4C9B240D0541E002AFE
:4026C0003FD003788B4218BF431C05D11CE0ECB10278013C8A4217D013F0030F184603F10103F4D1032C14D884B103788B420BD00519431C02E002788A4205D0AB4218460C
:4027000003F10103F7D1002070BC7047204670BC7047024641EA012646EA0646136810467340A3F1013525EA030313F0803F02F10402D9D1043C032C1046EFD8D4E714460E
:40274000D0E71046E0E700BF8842F0B50DD98B1898420AD28118002A54D09A1A13F8014D934201F8014DF9D1F0BD0F2A48D940EA01039B0747D1154600F1100401F11003EA
:4027800053F8106C103D44F8106C53F80C6C0F2D44F80C6C53F8086C04F1100444F8186C53F8046C03F1100344F8146CE8D8A2F1100323F00F0302F00F0E1033BEF1030FF6
:4027C0001944034421D90E4674461D1F56F8047B043C032C45F8047FF8D8AEF1040424F0030404342344214402F0030252B1013B0A4411F8014B914203F8014FF9D1F0BDF1
:402800000346F3E7F0BD0346F1E77246EEE700BF704700BF704700BF2DE9F04F174683B00D46002900F0E280814607F10B04FFF7EFFF55F8043C162C23F00306A5F1080879
:402840004BD810221446A7424CD8964251DADFF8A4B308EB0601DBF80800884200F0D380486820F0010E8E44DEF804E01EF0010F54D120F003003044904280F2BD80DB0701
:4028800000F1908055F8083CC3EB080ADAF8043023F0030300EB030E964549DB5746CB688968321FCB60996057F8081FDAF80C30242ACB60996000F23381132A40F2FA80F1
:4028C0002B681B2ACAF808306B68CAF80C3000F23B8108350AF11003EDE024F00704002C2246B0DA0C230020C9F8003003B0BDE8F08F2F46321B0F2A03F0010340D833439B
:40290000C8F804304644736843F0010373604846FFF780FF384603B0BDE8F08FD90741D455F8083CC3EB080ADAF8043023F003033344934236DB5746DAF80C1057F8080F29
:40294000321F242AC160886000F2F580132A40F2F08029681B2ACAF808106968CAF80C1000F2078108350AF1100229681E4611606968D0465160AB689360DAF80430B9E79C
:4029800008EB0401234342F00100C8F804300A4448605368083143F001035360484600F081FBB4E739464846FFF7FEFB07460028ADD055F8043CA0F1080123F00102424478
:4029C000914200F0A680321F242A00F29380132A65D803462A46116819605168596092689A602946484600F05DFB90E7114603B0BDE8F04FFFF7D8BBCA6889682F46CA60CA
:402A00000646916076E7416804F1100021F00301314481425ADADB07C4D455F8083CC3EB080ADAF8043023F0030301EB030C60453FF77EAF5746DAF80C3057F8081F321F6E
:402A4000242ACB60996000F2B680132A40F2A7802B681B2ACAF808306B68CAF80C3000F2B38008350AF110032A681A606A685A60AA689A60C4EB0C030AEB040243F001037F
:402A8000CBF808205360DAF80430484603F001031C43CAF80440FFF7BDFE38463BE72B681B2A03606B68436028D800F1080305F1080290E73B462A6876461A606A68D046E2
:402AC0005A60AA689A60DAF8043013E70B1B08EB040243F00103CBF80820536055F8043C484603F001031C4345F8044CFFF792FE284610E72946FFF727FE72E7AB68242AEF
:402B00008360EB68C3602BD000F1100305F1100261E750F8042C2F4622F003021644E9E6294638467646D046FFF70EFEDAF80430E0E63A4619E7294638461E46D046FFF756
:402B400003FEDAF80430D5E6AB68242ACAF81030EB68CAF8143018D010350AF11803AAE72A6900F118030261696905F11802416131E7A968242ACAF81010E968CAF81410ED
:402B80000FD010350AF11802EFE62A690AF12003CAF818206A691835CAF81C208BE73B4662E729690AF12002CAF8181069691835CAF81C10D9E629463846CDF804C0FFF731
:402BC000C3FDDDF804C055E7AB68242ACAF81030EB68CAF8143003D010350AF1180343E72A690AF12003CAF818206A691835CAF81C2039E75485FF1F38B5074C002305469E
:402C000008462360FDF7AEFC431C00D038BD2368002BFBD02B6038BDDC89FF1F38B52F4B054618680C4610B1836B002B36D0A28993B218070CD52069A8B113F001021ED0D3
:402C4000636900225B42A361A260F0B1002038BDD9063AD5580724D4206942F00803A3819BB20028E9D103F42072B2F5007FE4D02846214600F016FBA3892069DDE799075D
:402C800058BF6269A2600028E0D1A3891A06DED543F04003A3814FF0FF3038BD00F0AAF9C5E7216B49B104F14003994203D0284600F0F8F9A28900232363206922F02402CC
:402CC000002392B284E80900C7E742F0400209232B604FF0FF30A28138BD00BF5085FF1F2DE9F047254C064625688846D5F8484192469946C4B360681F2817DC411C76B178
:402D000004EB8003C3F888A0D4F88851012282401543022EC4F88851C3F808911ED0831C6160002044F82380BDE8F087144B03B34FF4C870AFF300800446D0B1D5F8483117
:402D4000002784E888003846C5F848410121C4F88871C4F88C71002EE1D0D1E7D4F88C311A43C4F88C21DAE705F5A674C5F84841C1E74FF0FF30BDE8F08700BF00360000BC
:402D8000000000008B892DE9F0419AB20D46110780463CD46A6843F40063002AAB8165DDAE6A002E4BD09BB203F48052002192B2D8F80040C8F80010002A5BD02A6D5F0719
:402DC00005D569682B6B521A0BB1EB6BD21A4046E9690023B047461C56D0AB892A6923F400639BB200212A60DA04AB8169603BD4296BC8F8004011B305F14003994202D055
:402E0000404600F04FF900202863BDE8F0812E69AEB191072C680CBF6B6900232E60A41BAB600AE0324623466F6A4046E969B8470028A4EB0004064404DD002CF2DC00205C
:402E4000BDE8F081AB894FF0FF3043F04003AB81BDE8F081AB892A6923F400639BB2AB81DB0469602A60C3D52865C1E7EA6B002A96DCE4E701234046E969B047431C0246D3
:402E800019D0AB89AE6A9AE7D8F800100029E1D01D2907D0162905D0AB8943F04003AB81BDE8F081AB89296923F400630022AB8185E806009CE7D8F80030002BE1D01D2BDD
:402EC00001D0162BBED1C8F80040B8E710B5044682B008B1836B53B1B1F90C0008B902B010BD204602B0BDE81040FFF74BBF019100F080F80199EFE7014900F0ABB900BFDC
:402F0000553400002DE9F04F074635487D68002407F53B7204230321F863C7F8E412C7F8E822C7F8E04283B02C606C60AC606C66EC812C616C61AC61AB81214605F15C0010
:402F40000822FEF7C7FEDFF89CB0BE68DFF898A0DFF89890DFF8988001230922C5F820B0C5F824A0C5F82890C5F82C80ED612146F381B28106F15C0034607460B4607466E7
:402F800034617461B46108220193FEF7A3FEFD6812200222F661C6F820B0C6F824A0C6F82890C6F82C802146A881EA812C606C60AC606C662C616C61AC6105F15C00082228
:402FC000FEF788FE019BED61C5F820B0C5F824A0C5F82890C5F82C80BB6303B0BDE8F08FF92E000085330000A9330000E133000001340000836B03B17047FFF783BF00BF37
:40300000704700BF704700BFF8B50C46224F0646FFF7FEFBBB685D6825F00305291B01F6EF7121F47F6121F00F01A1F58054B4F5805F07DB30460021FFF7DEFDBB682B4475
:40304000984204D03046FFF7E5FB0020F8BD30466142FFF7D1FD01300DD0104BBA6819682D1B45F001053046091B55601960FFF7D1FB0120F8BD30460021FFF7BDFDBA684C
:40308000831A0F2BDEDD064C0449246843F00103001B53600860D5E75485FF1FA889FF1F6089FF1F00294ED02DE9F0410C468046FFF7AEFB54F8047C6249A4F1080527F068
:4030C0000102AB188E6858689E4220F003005AD0FE0758600BD454F8087C01F1080EED1BAC683A44744567D0EF68E760BC601C186468E4070CD4544F9C680244BC427CD07D
:40310000D86842F00103E06084606B60AA5003E042F001036B60AA50B2F5007F14D2D20801EBC20301244868921004FA02F29C681043AC60EB6048609D60E5604046BDE88F
:40314000F041FFF767BB7047530A042B47D8930903F13804600001EB800083683949834243D0596821F00301914202D99B689842F7D1DA68EA60AB6040469560DD60BDE8AA
:40318000F041FFF747BBFF07024407D454F8084C2D1BEB68A8682244C36098602B4B42F001001B6868609A428D60C7D3284B40461968FFF729FFC1E719184968C90709D4CD
:4031C000D96802449B6842F00100D9608B606860AA50B3E742F001036B60AA50AEE7142B14D803F15B046000B5E74A68A4100120A04002434A601A46BCE742F001034D614B
:403200000D61EC60AC606B60AA5097E7542B04D8130B03F16E0460009DE7B3F5AA7F04D8D30B03F17704600095E740F25450834204D8930C03F17C0460008CE7FC207E24D1
:4032400089E700BF5485FF1F5C85FF1F5C89FF1FA489FF1F2DE9F84310F538761ED0884607464FF000097568B468013D10D4A389013D012B08D9B4F90E30013304D0384683
:403280002146C04749EA00096B1C04F16804EED13668002EE7D14846BDE8F883B1464846BDE8F8838B899AB212F0020F3CD1F0B50C46B1F90E1091B00029054619DB01AA53
:4032C00000F00AF9002812DB029B03F47043A3F50057B7FA87F7B3F5004F4FEA57172AD0A3894FF4806643F40063A3810BE0A3899AB212F0800F43F40063A3810CBF4FF4F6
:4033000080664026002728463146FEF74DFFA38940B31A4A43F08003EA63A3812060206166619FB911B0F0BD01F1430301220B600B614A617047124BA26A9A42D0D1A38916
:403340004FF480663343A381E664DCE72846B4F90E1000F0D5F80028E4D0A38943F00103A381DFE79A05DDD404F1430243F002030121A381226022616161D3E7F92E0000AE
:40338000E133000010B50C46B1F90E1000F0DEF8002803DB236D0344236510BDA38923F48053A38110BD00BF2DE9F0410C4689891D46CB051646074606D5B4F90E1000220D
:4033C000022300F0AFF8A18921F48051A1813846B4F90E1032462B46BDE8F04100F014B810B50C46B1F90E1000F09CF8A389421C0EBF23F4805343F480532065A38110BDF7
:40340000B1F90E1000F014B870B5084C06460025084611461A462560FCF77EFF431C00D070BD2368002BFBD0336070BDDC89FF1F38B5074C002305460846236000F09AF803
:40344000431C00D038BD2368002BFBD02B6038BDDC89FF1F00293DD070B505460C4608B1836B7BB3B4F90C300BB9002070BD28462146FFF787FCE36A064633B12846E1695A
:4034800098470028B8BF4FF0FF36A3891B061CD4216B41B104F14003994202D02846FFF701FE00232363616C21B12846FFF7FAFD00236364FFF7A4FD0023A381FFF7A2FD17
:4034C000304670BDFFF796FDCCE728462169FFF7E9FDDDE70020704738B5084C0023054608461146236000F04DF8431C00D038BD2368002BFBD02B6038BD00BFDC89FF1F0B
:4035000038B5074C002305460846236000F042F8431C00D038BD2368002BFBD02B6038BDDC89FF1F70B5084C06460025084611461A46256000F036F8431C00D070BD2368C1
:40354000002BFBD0336070BDDC89FF1F70B5084C06460025084611461A462560FCF7F2FE431C00D070BD2368002BFBD0336070BDDC89FF1F024B58221A604FF0FF30704735
:40358000DC89FF1F024B58221A604FF0FF307047DC89FF1F024B58221A600020704700BFDC89FF1F024B58221A604FF0FF307047DC89FF1F000000000A426F6F74000000BE
:4035C000C84900401900004F0040300040510040300000000140001000140140000800400140000A004C014000020050014020006052004074080048060000004300000029
:403600002881FF1F0A000000F8B500BFF8BC08BC9E4670473D1E00004D000000E1050000F8B500BFF8BC08BC9E46704729000000403600000881FF1F600800007800000007
:40364000000000001027102710271027E089FF1F0000E02EC05D00001800000000366E01000000001484FF1F7C84FF1FE484FF1F00000000000000000000000000000000A5
:403680000000000000000000000000000000000000000000FC35000000000000000000000000000000000000000000000000000000000000000000000000000000000000D9
:4036C00000000000000000000000000000000000000000000000000000000000000000000000000000000000000000000000000000000000000000000000000000000000CA
:40370000000000000000000001000000000000000E33CDAB34126DE6ECDE05000B00000000000000000000000000000000000000000000000000000000000000000000005C
:403740000000000000000000000000000000000000000000000000000000000000000000000000000000000000000000000000000000000000000000000000000000000049
:403780000000000000000000000000000000000000000000000000000000000000000000000000000000000000000000000000000000000000000000000000000000000009
:4037C00000000000000000000000000000000000000000000000000000000000000000000000000000000000000000000000000000000000000000000000000000000000C9
:403800000000000000000000000000000000000000000000000000000000000000000000000000000000000000000000000000000000000000000000000000000000000088
:403840000000000000000000000000000000000000000000000000000000000000000000000000000000000000000000000000000000000000000000000000000000000048
:403880000000000000000000000000000000000000000000000000000000000000000000000000000000000000000000000000000000000000000000000000000000000008
:4038C00000000000000000000000000000000000000000000000000000000000000000000000000000000000000000000000000000000000000000000000000000000000C8
:403900000000000000000000000000000000000000000000000000000000000000000000000000000000000000000000000000000000000000000000000000000000000087
:403940000000000000000000000000000000000000000000000000000000000000000000000000000000000000000000000000000000000000000000000000000000000047
:403980000000000000000000000000000000000000000000000000000000000000000000000000000000000000000000000000000000000000000000000000000000000007
:4039C00000000000000000000000000000000000000000000000000000000000000000000000000000000000000000000000000000000000000000000000000000000000C7
:403A00000000000000000000000000000000000000000000000000000000000000000000000000000000000000000000000000000000000000000000000000000000000086
:403A40000000000000000000000000000000000000000000000000000000000000000000000000000000000000000000000000000000000000000000000000000000000046
:403A800000000000000000002881FF1F00000000000000005485FF1F5485FF1F5C85FF1F5C85FF1F6485FF1F6485FF1F6C85FF1F6C85FF1F7485FF1F7485FF1F7C85FF1FDA
:403AC0007C85FF1F8485FF1F8485FF1F8C85FF1F8C85FF1F9485FF1F9485FF1F9C85FF1F9C85FF1FA485FF1FA485FF1FAC85FF1FAC85FF1FB485FF1FB485FF1FBC85FF1FD6
:403B0000BC85FF1FC485FF1FC485FF1FCC85FF1FCC85FF1FD485FF1FD485FF1FDC85FF1FDC85FF1FE485FF1FE485FF1FEC85FF1FEC85FF1FF485FF1FF485FF1FFC85FF1F95
:403B4000FC85FF1F0486FF1F0486FF1F0C86FF1F0C86FF1F1486FF1F1486FF1F1C86FF1F1C86FF1F2486FF1F2486FF1F2C86FF1F2C86FF1F3486FF1F3486FF1F3C86FF1F46
:403B80003C86FF1F4486FF1F4486FF1F4C86FF1F4C86FF1F5486FF1F5486FF1F5C86FF1F5C86FF1F6486FF1F6486FF1F6C86FF1F6C86FF1F7486FF1F7486FF1F7C86FF1F05
:403BC0007C86FF1F8486FF1F8486FF1F8C86FF1F8C86FF1F9486FF1F9486FF1F9C86FF1F9C86FF1FA486FF1FA486FF1FAC86FF1FAC86FF1FB486FF1FB486FF1FBC86FF1FC5
:403C0000BC86FF1FC486FF1FC486FF1FCC86FF1FCC86FF1FD486FF1FD486FF1FDC86FF1FDC86FF1FE486FF1FE486FF1FEC86FF1FEC86FF1FF486FF1FF486FF1FFC86FF1F84
:403C4000FC86FF1F0487FF1F0487FF1F0C87FF1F0C87FF1F1487FF1F1487FF1F1C87FF1F1C87FF1F2487FF1F2487FF1F2C87FF1F2C87FF1F3487FF1F3487FF1F3C87FF1F35
:403C80003C87FF1F4487FF1F4487FF1F4C87FF1F4C87FF1F5487FF1F5487FF1F5C87FF1F5C87FF1F6487FF1F6487FF1F6C87FF1F6C87FF1F7487FF1F7487FF1F7C87FF1FF4
:403CC0007C87FF1F8487FF1F8487FF1F8C87FF1F8C87FF1F9487FF1F9487FF1F9C87FF1F9C87FF1FA487FF1FA487FF1FAC87FF1FAC87FF1FB487FF1FB487FF1FBC87FF1FB4
:403D0000BC87FF1FC487FF1FC487FF1FCC87FF1FCC87FF1FD487FF1FD487FF1FDC87FF1FDC87FF1FE487FF1FE487FF1FEC87FF1FEC87FF1FF487FF1FF487FF1FFC87FF1F73
:403D4000FC87FF1F0488FF1F0488FF1F0C88FF1F0C88FF1F1488FF1F1488FF1F1C88FF1F1C88FF1F2488FF1F2488FF1F2C88FF1F2C88FF1F3488FF1F3488FF1F3C88FF1F24
:403D80003C88FF1F4488FF1F4488FF1F4C88FF1F4C88FF1F5488FF1F5488FF1F5C88FF1F5C88FF1F6488FF1F6488FF1F6C88FF1F6C88FF1F7488FF1F7488FF1F7C88FF1FE3
:403DC0007C88FF1F8488FF1F8488FF1F8C88FF1F8C88FF1F9488FF1F9488FF1F9C88FF1F9C88FF1FA488FF1FA488FF1FAC88FF1FAC88FF1FB488FF1FB488FF1FBC88FF1FA3
:403E0000BC88FF1FC488FF1FC488FF1FCC88FF1FCC88FF1FD488FF1FD488FF1FDC88FF1FDC88FF1FE488FF1FE488FF1FEC88FF1FEC88FF1FF488FF1FF488FF1FFC88FF1F62
:403E4000FC88FF1F0489FF1F0489FF1F0C89FF1F0C89FF1F1489FF1F1489FF1F1C89FF1F1C89FF1F2489FF1F2489FF1F2C89FF1F2C89FF1F3489FF1F3489FF1F3C89FF1F13
:403E80003C89FF1F4489FF1F4489FF1F4C89FF1F4C89FF1F00000200FFFFFFFF00000000000000000000000000000000000000000000000000000000000000000000000065
:403EC00000000000000000000000000000000000000000000000000000000000000000000000000000000000000000000000000000000000000000000000000000000000C2
:403F00000000000000000000000000000000000000000000000000000000000000000000000000000000000000000000000000000000000000000000000000000000000081
:403F40000000000000000000000000000000000000000000000000000000000000000000000000000000000000000000000000000000000000000000000000000000000041
:403F80000000000000000000000000000000000000000000000000000000000000000000000000000000000000000000000000000000000000000000000000000000000001
:020000040003F7
:0200000480007A
:40000000084F004003520040015B00400364004003650040010101400103014001050140010701404D08014041090140040A01400C0B0140680C0140360D0140010F01403F
:40004000131501405F1601403E1701405818014057190140591A0140541B014005400140034101400D42014009430140024401400345014006460140044701401748014014
:400080001E490140144C0140134D0140065001400251014001800A4E0D80164E1980221E25802E4E1830192079022F848838890F8C0F870F88728B0FE604E602E208E801F6
:4000C00004180A040C041623183F1C10201C222123012427261828082C3C2E022F013101321F36383A283F015418580459045B045C015D105F0182048503860487148A01E7
:400100008B088C038D138F0C90029403A120A513A604A704AB15AD0AAE04AF14B10FB204B320B403B710B820BB02BE14BF44C056C102C6BEC70CC81CC9FFCAFFCBFFCEF021
:40014000CF44D00CD401D804D904DA04DB04DC10DD11DF01E6C0EA40EB0200600101020803280510061208090A400B100C800D080E04138814101604174118041A201D0439
:400180001E041F50204022462502280129012A082B882C402F42386840084208450246804A0A50245384582059015A885E02640466808740902092429310944096209B80D7
:4001C0009E40A420A708AB80C0EFC2ECC4F5CA9FCE0ED004D20CD68FD830E602B880BE40D804DF011F408740902092429310944096209E40A420A708B510B720080D0A024A
:400200000B011302160D19031A081D011E0425013001310232023301340C36083AA03E013F014065420449FF4AFF4BFF4F01501854035604580459045A045B045C225D2291
:400240005F016040624064406540668068806A806C806E808303844089098A0C8BD08C118D108E068FAC900C92139411950C960E97719914A1DCA208A322A820AA03AB201F
:40028000AD10AF40B00FB11FB230B3E0B440B808BA02BB08BE10C065C204C5ECC720C823C9FFCAFFCBFFCD83CE03CF01D018D804D904DA04DC11DD02DF01E040E240E44042
:4002C000E540E680E880EA80EC80EE800050032005100A400B100D800E1410041240183819211A401DC01E141F1221092201231027A0280429012A402B082F10302031089F
:4003000035503602385039023E1042804302468049204A024B054C044E0252025FA5674087409620C047C2ECC40ACA4DCCB6CE2DD081D23CD6F0D8808210818088408D8005
:400340008F109C409D809F10A180A802B226B610B720E008E214E421E608E810EA4DEE8002020B01150216011A0123062B0131023202340135043701403041054501460289
:40038000480549FF4AFF4BFF4DA04F0450185280580459045A045B045C435D335F01604062C06440654066C068C06AC06CC06EC086088A048B028F04930195089604980218
:4003C0009A019C039F02A001A202A803AE08AF01B102B204B304B403B501B608B708BE44BF50C060C103C5D2C601C705C817C9FFCAFFCBFFCDA0CF04D018D280D407D80438
:40040000D904DA04DB04DC41DD44DF01E040E2C0E440E540E6C0E8C0EAC0ECC0EEC000300310064009400A040B100D080F08104A180819041A051D081F202080222023124F
:400440002580274829802C802F083080320637083B503F1040104508481049014B104F8850805308574059055A105B40734076408540870888408A018B028C0CC016C26711
:40048000C40BCAA8CC4BCE2CD042D214D60FE22AE402E624E844EC80EE040101050406020D030E021001111F13201402151C1723180219331B0C1D0221082401253F2801D8
:4004C0002B232D0C300232013310350F372C38023BA03F044064420145EC4602480749FF4AFF4BFF4F01501856025711580459045A045B045C115D155F0160406240644031
:400500006540668068806A806C806E80800186038D0491029D01B001B102B304B501B602BF15C002C604C9FFCA07CBFFCC40CD20CEF0CF05D008D804D904DA04DC04DD01B4
:40054000DF01E040E1A8E240E32000090504070108080A100B200C100E501520170418811D091F042102221023102408261027212C812F14328134103504361037413B4027
:400580003C403E0A4004468148104E084F05524056805F206E446F047480761C8102821084048510860488058A108D408F44900492029360984099049C149D109E569F01D4
:4005C000A280A490A508A601A702AB08AC20AF04B101B280B504B760C0ACC270C460CAF0CCF9CED8D094D220D620E011E208E480E610E840EC80EE04020F0310080509603A
:400600000A0A0B0E0C050D650E0A11201230134914101520162017431C031E0C202021802210230F28032A0C310F320F33E0363037103B0E3E405283580459045B045C55A5
:400640005D505F018084823086068C268EC8960698E099019CE0A206A406A806AC42AE31B0E0B206B401B618B701BE40BF40C063C102C204C401C7CEC830C9FFCAFFCBFF53
:40068000CC62CDA0CEF0CF41D00CD403D804D904DA04DB04DC01DD51DF01E640E702E910EA30EB10ED10EE10EF120010014003800440050407400A420B200D480E04100846
:4006C00013021418160217011A101B801C401D901F0820102201230226802A012B8030083201372038103942444845884C04550457025C805E105F0568086940724082487D
:40070000868089018A028B308D049008918092049305944098D899049B419D109E03A108A608A70AA901AA01AB08AF10B080B280B440C0BBC2EDC4FACA01CC23CE0DD0F00D
:40074000D220D6F0E008E280E421E640E830EA81EEB0338834208020CC70E6208708A788E6401B421C413E105B085F0867808748A780C6F0CE20D6C0D880E2106B089040E0
:4007800096109B08A342A780A801DA40E8801302C40803809B02C008038005029B02B780C00CEA02870299029B02A38024085A20644069046F0272028202862089048A1009
:4007C0009610ABC0B302B440C820D480D880DAC0DC20E210E620E820EE200902122016405B0266107220740282208440864089028F029A309C40A002AA10AF02B002B40434
:40080000B610C210C430D640D880DC80DE20E010E480E610EA900C101080132016401D1034027B107F408210848099029D10A910B380C201C40EC601CC01DE03EA011040AF
:400840007210831087408850921097809810A710AB20B102B240B402C408DC01E205E808EA01EE0100060C020E06103A1A1A1C32003F03C002800000430000000080800071
:40088000000004008300409093008300000000000033330002000000800B0B000000000004000126220000008000000000F0F00060000000000000000000000000000000C0
:4008C00000000000000000000000000000000000000000000000000000000000000000000000000000000000000000000000000000000000000000000000000000000000F8
:4009000000000000000000000000000000000000000000000000000000000000000000000000000000000000000000000000000000000000000000000000000000000000B7
:400940000000000000000000000000000000000000000000000000000000000000000000000000000000000000000000000000000000000000000000000000000000000077
:400980000000000000000000000000000000000000000000000000000000000000000000000000000000000000000000000000000000000000000000000000000000000037
:0200000490006A
:0400000000004005B7
:0200000490105A
:04000000BC90ACAF55
:0200000490303A
:02000000BA4103
:0200000490402A
:4000000000000000000000000000000000000000000000000000000000000000000000000000000000000000000000000000000000000000000000000000000000000000C0
:400040000000000000000000000000000000000000000000000000000000000000000000000000000000000000000000000000000000000000000000000000000000000080
:400080000000000000000000000000000000000000000000000000000000000000000000000000000000000000000000000000000000000000000000000000000000000040
:4000C0000000000000000000000000000000000000000000000000000000000000000000000000000000000000000000000000000000000000000000000000000000000000
:0200000490501A
:0C00000000012E16106900012E30CAAA63
:00000001FF